{
  "_format": "hh-sol-artifact-1",
  "contractName": "MyToken",
  "sourceName": "contracts/MyNFT.sol",
  "abi": [
    {
      "inputs": [
        {
          "internalType": "address",
          "name": "_defaultSpender",
          "type": "address"
        }
      ],
      "stateMutability": "nonpayable",
      "type": "constructor"
    },
    {
      "inputs": [],
      "name": "WrongAddress",
      "type": "error"
    },
    {
      "anonymous": false,
      "inputs": [
        {
          "indexed": true,
          "internalType": "address",
          "name": "owner",
          "type": "address"
        },
        {
          "indexed": true,
          "internalType": "address",
          "name": "approved",
          "type": "address"
        },
        {
          "indexed": true,
          "internalType": "uint256",
          "name": "tokenId",
          "type": "uint256"
        }
      ],
      "name": "Approval",
      "type": "event"
    },
    {
      "anonymous": false,
      "inputs": [
        {
          "indexed": true,
          "internalType": "address",
          "name": "owner",
          "type": "address"
        },
        {
          "indexed": true,
          "internalType": "address",
          "name": "operator",
          "type": "address"
        },
        {
          "indexed": false,
          "internalType": "bool",
          "name": "approved",
          "type": "bool"
        }
      ],
      "name": "ApprovalForAll",
      "type": "event"
    },
    {
      "anonymous": false,
      "inputs": [
        {
          "indexed": false,
          "internalType": "address",
          "name": "to",
          "type": "address"
        },
        {
          "indexed": false,
          "internalType": "uint256",
          "name": "_totalNft",
          "type": "uint256"
        }
      ],
      "name": "BatchMint",
      "type": "event"
    },
    {
      "anonymous": false,
      "inputs": [
        {
          "indexed": true,
          "internalType": "address",
          "name": "previousOwner",
          "type": "address"
        },
        {
          "indexed": true,
          "internalType": "address",
          "name": "newOwner",
          "type": "address"
        }
      ],
      "name": "OwnershipTransferred",
      "type": "event"
    },
    {
      "anonymous": false,
      "inputs": [
        {
          "indexed": false,
          "internalType": "address",
          "name": "caller",
          "type": "address"
        },
        {
          "indexed": false,
          "internalType": "uint256",
          "name": "tokenId",
          "type": "uint256"
        },
        {
          "indexed": false,
          "internalType": "bool",
          "name": "status",
          "type": "bool"
        }
      ],
      "name": "PermitDefaultSpender",
      "type": "event"
    },
    {
      "anonymous": false,
      "inputs": [
        {
          "indexed": true,
          "internalType": "address",
          "name": "from",
          "type": "address"
        },
        {
          "indexed": true,
          "internalType": "address",
          "name": "to",
          "type": "address"
        },
        {
          "indexed": true,
          "internalType": "uint256",
          "name": "tokenId",
          "type": "uint256"
        }
      ],
      "name": "Transfer",
      "type": "event"
    },
    {
      "anonymous": false,
      "inputs": [
        {
          "indexed": false,
          "internalType": "address",
          "name": "newDefaultSpender",
          "type": "address"
        }
      ],
      "name": "UpdateDefaultSpender",
      "type": "event"
    },
    {
      "inputs": [
        {
          "internalType": "address",
          "name": "to",
          "type": "address"
        },
        {
          "internalType": "uint256",
          "name": "tokenId",
          "type": "uint256"
        }
      ],
      "name": "approve",
      "outputs": [],
      "stateMutability": "nonpayable",
      "type": "function"
    },
    {
      "inputs": [
        {
          "internalType": "address",
          "name": "owner",
          "type": "address"
        }
      ],
      "name": "balanceOf",
      "outputs": [
        {
          "internalType": "uint256",
          "name": "",
          "type": "uint256"
        }
      ],
      "stateMutability": "view",
      "type": "function"
    },
    {
      "inputs": [
        {
          "internalType": "address",
          "name": "to",
          "type": "address"
        },
        {
          "internalType": "uint256",
          "name": "_totalNft",
          "type": "uint256"
        },
        {
          "internalType": "string[]",
          "name": "_uri",
          "type": "string[]"
        }
      ],
      "name": "batchMint",
      "outputs": [],
      "stateMutability": "nonpayable",
      "type": "function"
    },
    {
      "inputs": [
        {
          "internalType": "uint256",
          "name": "_totalNft",
          "type": "uint256"
        },
        {
          "internalType": "address[]",
          "name": "from",
          "type": "address[]"
        },
        {
          "internalType": "address[]",
          "name": "to",
          "type": "address[]"
        },
        {
          "internalType": "uint256[]",
          "name": "tokenIds",
          "type": "uint256[]"
        }
      ],
      "name": "batchTransfer",
      "outputs": [],
      "stateMutability": "nonpayable",
      "type": "function"
    },
    {
      "inputs": [],
      "name": "defaultSpender",
      "outputs": [
        {
          "internalType": "address",
          "name": "",
          "type": "address"
        }
      ],
      "stateMutability": "view",
      "type": "function"
    },
    {
      "inputs": [
        {
          "internalType": "uint256",
          "name": "tokenId",
          "type": "uint256"
        }
      ],
      "name": "getApproved",
      "outputs": [
        {
          "internalType": "address",
          "name": "",
          "type": "address"
        }
      ],
      "stateMutability": "view",
      "type": "function"
    },
    {
      "inputs": [
        {
          "internalType": "address",
          "name": "owner",
          "type": "address"
        },
        {
          "internalType": "address",
          "name": "operator",
          "type": "address"
        }
      ],
      "name": "isApprovedForAll",
      "outputs": [
        {
          "internalType": "bool",
          "name": "",
          "type": "bool"
        }
      ],
      "stateMutability": "view",
      "type": "function"
    },
    {
      "inputs": [
        {
          "internalType": "address",
          "name": "from",
          "type": "address"
        },
        {
          "internalType": "address",
          "name": "to",
          "type": "address"
        },
        {
          "internalType": "string",
          "name": "uri",
          "type": "string"
        }
      ],
      "name": "mintAndSend",
      "outputs": [],
      "stateMutability": "nonpayable",
      "type": "function"
    },
    {
      "inputs": [],
      "name": "name",
      "outputs": [
        {
          "internalType": "string",
          "name": "",
          "type": "string"
        }
      ],
      "stateMutability": "view",
      "type": "function"
    },
    {
      "inputs": [],
      "name": "owner",
      "outputs": [
        {
          "internalType": "address",
          "name": "",
          "type": "address"
        }
      ],
      "stateMutability": "view",
      "type": "function"
    },
    {
      "inputs": [
        {
          "internalType": "uint256",
          "name": "tokenId",
          "type": "uint256"
        }
      ],
      "name": "ownerOf",
      "outputs": [
        {
          "internalType": "address",
          "name": "",
          "type": "address"
        }
      ],
      "stateMutability": "view",
      "type": "function"
    },
    {
      "inputs": [
        {
          "internalType": "uint256",
          "name": "tokenId",
          "type": "uint256"
        },
        {
          "internalType": "bool",
          "name": "status",
          "type": "bool"
        }
      ],
      "name": "permitDefaultSpender",
      "outputs": [],
      "stateMutability": "nonpayable",
      "type": "function"
    },
    {
      "inputs": [],
      "name": "renounceOwnership",
      "outputs": [],
      "stateMutability": "nonpayable",
      "type": "function"
    },
    {
      "inputs": [
        {
          "internalType": "address",
          "name": "to",
          "type": "address"
        },
        {
          "internalType": "string",
          "name": "uri",
          "type": "string"
        }
      ],
      "name": "safeMint",
      "outputs": [],
      "stateMutability": "nonpayable",
      "type": "function"
    },
    {
      "inputs": [
        {
          "internalType": "address",
          "name": "from",
          "type": "address"
        },
        {
          "internalType": "address",
          "name": "to",
          "type": "address"
        },
        {
          "internalType": "uint256",
          "name": "tokenId",
          "type": "uint256"
        }
      ],
      "name": "safeTransferFrom",
      "outputs": [],
      "stateMutability": "nonpayable",
      "type": "function"
    },
    {
      "inputs": [
        {
          "internalType": "address",
          "name": "from",
          "type": "address"
        },
        {
          "internalType": "address",
          "name": "to",
          "type": "address"
        },
        {
          "internalType": "uint256",
          "name": "tokenId",
          "type": "uint256"
        },
        {
          "internalType": "bytes",
          "name": "_data",
          "type": "bytes"
        }
      ],
      "name": "safeTransferFrom",
      "outputs": [],
      "stateMutability": "nonpayable",
      "type": "function"
    },
    {
      "inputs": [
        {
          "internalType": "address",
          "name": "operator",
          "type": "address"
        },
        {
          "internalType": "bool",
          "name": "approved",
          "type": "bool"
        }
      ],
      "name": "setApprovalForAll",
      "outputs": [],
      "stateMutability": "nonpayable",
      "type": "function"
    },
    {
      "inputs": [
        {
          "internalType": "bytes4",
          "name": "interfaceId",
          "type": "bytes4"
        }
      ],
      "name": "supportsInterface",
      "outputs": [
        {
          "internalType": "bool",
          "name": "",
          "type": "bool"
        }
      ],
      "stateMutability": "view",
      "type": "function"
    },
    {
      "inputs": [],
      "name": "symbol",
      "outputs": [
        {
          "internalType": "string",
          "name": "",
          "type": "string"
        }
      ],
      "stateMutability": "view",
      "type": "function"
    },
    {
      "inputs": [
        {
          "internalType": "uint256",
          "name": "tokenId",
          "type": "uint256"
        }
      ],
      "name": "tokenURI",
      "outputs": [
        {
          "internalType": "string",
          "name": "",
          "type": "string"
        }
      ],
      "stateMutability": "view",
      "type": "function"
    },
    {
      "inputs": [
        {
          "internalType": "address",
          "name": "to",
          "type": "address"
        },
        {
          "internalType": "uint256",
          "name": "tokenId",
          "type": "uint256"
        }
      ],
      "name": "transferAsOwner",
      "outputs": [],
      "stateMutability": "nonpayable",
      "type": "function"
    },
    {
      "inputs": [
        {
          "internalType": "address",
          "name": "from",
          "type": "address"
        },
        {
          "internalType": "address",
          "name": "to",
          "type": "address"
        },
        {
          "internalType": "uint256",
          "name": "tokenId",
          "type": "uint256"
        }
      ],
      "name": "transferFrom",
      "outputs": [],
      "stateMutability": "nonpayable",
      "type": "function"
    },
    {
      "inputs": [
        {
          "internalType": "address",
          "name": "newOwner",
          "type": "address"
        }
      ],
      "name": "transferOwnership",
      "outputs": [],
      "stateMutability": "nonpayable",
      "type": "function"
    },
    {
      "inputs": [
        {
          "internalType": "address",
          "name": "newDefaultSpender",
          "type": "address"
        }
      ],
      "name": "updateDefaultSpender",
      "outputs": [],
      "stateMutability": "nonpayable",
      "type": "function"
    }
  ],
  "bytecode": "0x60806040523480156200001157600080fd5b50604051620041733803806200417383398181016040528101906200003791906200038f565b6040518060400160405280600781526020017f4e656f6b617264000000000000000000000000000000000000000000000000008152506040518060400160405280600481526020017f4e454f4b000000000000000000000000000000000000000000000000000000008152508160009080519060200190620000bb92919062000275565b508060019080519060200190620000d492919062000275565b505050620000f7620000eb620001a760201b60201c565b620001af60201b60201c565b600073ffffffffffffffffffffffffffffffffffffffff168173ffffffffffffffffffffffffffffffffffffffff1614156200015f576040517f1a479e8200000000000000000000000000000000000000000000000000000000815260040160405180910390fd5b80600960006101000a81548173ffffffffffffffffffffffffffffffffffffffff021916908373ffffffffffffffffffffffffffffffffffffffff1602179055505062000426565b600033905090565b6000600760009054906101000a900473ffffffffffffffffffffffffffffffffffffffff16905081600760006101000a81548173ffffffffffffffffffffffffffffffffffffffff021916908373ffffffffffffffffffffffffffffffffffffffff1602179055508173ffffffffffffffffffffffffffffffffffffffff168173ffffffffffffffffffffffffffffffffffffffff167f8be0079c531659141344cd1fd0a4f28419497f9722a3daafe3b4186f6b6457e060405160405180910390a35050565b8280546200028390620003f0565b90600052602060002090601f016020900481019282620002a75760008555620002f3565b82601f10620002c257805160ff1916838001178555620002f3565b82800160010185558215620002f3579182015b82811115620002f2578251825591602001919060010190620002d5565b5b50905062000302919062000306565b5090565b5b808211156200032157600081600090555060010162000307565b5090565b600080fd5b600073ffffffffffffffffffffffffffffffffffffffff82169050919050565b600062000357826200032a565b9050919050565b62000369816200034a565b81146200037557600080fd5b50565b60008151905062000389816200035e565b92915050565b600060208284031215620003a857620003a762000325565b5b6000620003b88482850162000378565b91505092915050565b7f4e487b7100000000000000000000000000000000000000000000000000000000600052602260045260246000fd5b600060028204905060018216806200040957607f821691505b6020821081141562000420576200041f620003c1565b5b50919050565b613d3d80620004366000396000f3fe608060405234801561001057600080fd5b50600436106101585760003560e01c8063a22cb465116100c3578063cc28ec331161007c578063cc28ec33146103ad578063cecf7f66146103c9578063d204c45e146103e5578063e985e9c514610401578063ef7b37d014610431578063f2fde38b1461044f57610158565b8063a22cb465146102f1578063b17d7f001461030d578063b88d4fde14610329578063bc31ace314610345578063c0bffeb914610361578063c87b56dd1461037d57610158565b806342842e0e1161011557806342842e0e1461022f5780636352211e1461024b57806370a082311461027b578063715018a6146102ab5780638da5cb5b146102b557806395d89b41146102d357610158565b806301ffc9a71461015d57806306fdde031461018d578063081812fc146101ab578063095ea7b3146101db5780631fafe15c146101f757806323b872dd14610213575b600080fd5b6101776004803603810190610172919061246a565b61046b565b60405161018491906124b2565b60405180910390f35b61019561054d565b6040516101a29190612566565b60405180910390f35b6101c560048036038101906101c091906125be565b6105df565b6040516101d2919061262c565b60405180910390f35b6101f560048036038101906101f09190612673565b610664565b005b610211600480360381019061020c9190612673565b61077c565b005b61022d600480360381019061022891906126b3565b61081f565b005b610249600480360381019061024491906126b3565b61087f565b005b610265600480360381019061026091906125be565b61089f565b604051610272919061262c565b60405180910390f35b61029560048036038101906102909190612706565b610951565b6040516102a29190612742565b60405180910390f35b6102b3610a09565b005b6102bd610a91565b6040516102ca919061262c565b60405180910390f35b6102db610abb565b6040516102e89190612566565b60405180910390f35b61030b60048036038101906103069190612789565b610b4d565b005b610327600480360381019061032291906127c9565b610b63565b005b610343600480360381019061033e919061293e565b610c79565b005b61035f600480360381019061035a9190612706565b610cdb565b005b61037b60048036038101906103769190612a62565b610e91565b005b610397600480360381019061039291906125be565b610f86565b6040516103a49190612566565b60405180910390f35b6103c760048036038101906103c29190612bb7565b610f98565b005b6103e360048036038101906103de9190612dac565b61105c565b005b6103ff60048036038101906103fa9190612e67565b6110ff565b005b61041b60048036038101906104169190612ec3565b6111d8565b60405161042891906124b2565b60405180910390f35b61043961126c565b604051610446919061262c565b60405180910390f35b61046960048036038101906104649190612706565b611292565b005b60007f80ac58cd000000000000000000000000000000000000000000000000000000007bffffffffffffffffffffffffffffffffffffffffffffffffffffffff1916827bffffffffffffffffffffffffffffffffffffffffffffffffffffffff1916148061053657507f5b5e139f000000000000000000000000000000000000000000000000000000007bffffffffffffffffffffffffffffffffffffffffffffffffffffffff1916827bffffffffffffffffffffffffffffffffffffffffffffffffffffffff1916145b8061054657506105458261138a565b5b9050919050565b60606000805461055c90612f32565b80601f016020809104026020016040519081016040528092919081815260200182805461058890612f32565b80156105d55780601f106105aa576101008083540402835291602001916105d5565b820191906000526020600020905b8154815290600101906020018083116105b857829003601f168201915b5050505050905090565b60006105ea826113f4565b610629576040517f08c379a000000000000000000000000000000000000000000000000000000000815260040161062090612fd6565b60405180910390fd5b6004600083815260200190815260200160002060009054906101000a900473ffffffffffffffffffffffffffffffffffffffff169050919050565b600061066f8261089f565b90508073ffffffffffffffffffffffffffffffffffffffff168373ffffffffffffffffffffffffffffffffffffffff1614156106e0576040517f08c379a00000000000000000000000000000000000000000000000000000000081526004016106d790613068565b60405180910390fd5b8073ffffffffffffffffffffffffffffffffffffffff166106ff611460565b73ffffffffffffffffffffffffffffffffffffffff16148061072e575061072d81610728611460565b6111d8565b5b61076d576040517f08c379a0000000000000000000000000000000000000000000000000000000008152600401610764906130fa565b60405180910390fd5b6107778383611468565b505050565b610784611460565b73ffffffffffffffffffffffffffffffffffffffff166107a2610a91565b73ffffffffffffffffffffffffffffffffffffffff16146107f8576040517f08c379a00000000000000000000000000000000000000000000000000000000081526004016107ef90613166565b60405180910390fd5b61081b6108048261089f565b838360405180602001604052806000815250611521565b5050565b61083061082a611460565b8261157d565b61086f576040517f08c379a0000000000000000000000000000000000000000000000000000000008152600401610866906131f8565b60405180910390fd5b61087a8383836116dc565b505050565b61089a83838360405180602001604052806000815250610c79565b505050565b6000806002600084815260200190815260200160002060009054906101000a900473ffffffffffffffffffffffffffffffffffffffff169050600073ffffffffffffffffffffffffffffffffffffffff168173ffffffffffffffffffffffffffffffffffffffff161415610948576040517f08c379a000000000000000000000000000000000000000000000000000000000815260040161093f9061328a565b60405180910390fd5b80915050919050565b60008073ffffffffffffffffffffffffffffffffffffffff168273ffffffffffffffffffffffffffffffffffffffff1614156109c2576040517f08c379a00000000000000000000000000000000000000000000000000000000081526004016109b99061331c565b60405180910390fd5b600360008373ffffffffffffffffffffffffffffffffffffffff1673ffffffffffffffffffffffffffffffffffffffff168152602001908152602001600020549050919050565b610a11611460565b73ffffffffffffffffffffffffffffffffffffffff16610a2f610a91565b73ffffffffffffffffffffffffffffffffffffffff1614610a85576040517f08c379a0000000000000000000000000000000000000000000000000000000008152600401610a7c90613166565b60405180910390fd5b610a8f6000611938565b565b6000600760009054906101000a900473ffffffffffffffffffffffffffffffffffffffff16905090565b606060018054610aca90612f32565b80601f0160208091040260200160405190810160405280929190818152602001828054610af690612f32565b8015610b435780601f10610b1857610100808354040283529160200191610b43565b820191906000526020600020905b815481529060010190602001808311610b2657829003601f168201915b5050505050905090565b610b5f610b58611460565b83836119fe565b5050565b610b6c826113f4565b610bab576040517f08c379a0000000000000000000000000000000000000000000000000000000008152600401610ba2906133ae565b60405180910390fd5b6000610bb68361089f565b90506000610bc2611460565b90508173ffffffffffffffffffffffffffffffffffffffff168173ffffffffffffffffffffffffffffffffffffffff161480610c045750610c0382826111d8565b5b610c0d57600080fd5b82600a600086815260200190815260200160002060006101000a81548160ff0219169083151502179055507fc2fe717c4a5698bf2af5d604f1320ef73880d8314172739bafabed26370dae0c818585604051610c6b939291906133ce565b60405180910390a150505050565b610c8a610c84611460565b8361157d565b610cc9576040517f08c379a0000000000000000000000000000000000000000000000000000000008152600401610cc0906131f8565b60405180910390fd5b610cd584848484611521565b50505050565b610ce3611460565b73ffffffffffffffffffffffffffffffffffffffff16610d01610a91565b73ffffffffffffffffffffffffffffffffffffffff1614610d57576040517f08c379a0000000000000000000000000000000000000000000000000000000008152600401610d4e90613166565b60405180910390fd5b600960009054906101000a900473ffffffffffffffffffffffffffffffffffffffff1673ffffffffffffffffffffffffffffffffffffffff168173ffffffffffffffffffffffffffffffffffffffff161480610ddf5750600073ffffffffffffffffffffffffffffffffffffffff168173ffffffffffffffffffffffffffffffffffffffff16145b15610e16576040517f1a479e8200000000000000000000000000000000000000000000000000000000815260040160405180910390fd5b80600960006101000a81548173ffffffffffffffffffffffffffffffffffffffff021916908373ffffffffffffffffffffffffffffffffffffffff1602179055507f09bb1859dd79a7e6f7328e4cf14a90e614a7a780561a6ed3b0eb4672b1a53dab81604051610e86919061262c565b60405180910390a150565b610e99611460565b73ffffffffffffffffffffffffffffffffffffffff16610eb7610a91565b73ffffffffffffffffffffffffffffffffffffffff1614610f0d576040517f08c379a0000000000000000000000000000000000000000000000000000000008152600401610f0490613166565b60405180910390fd5b6000610f196008611b6b565b9050610f256008611b79565b610f2f8482611b8f565b6001600a600083815260200190815260200160002060006101000a81548160ff021916908315150217905550610f658183611bad565b610f8084848360405180602001604052806000815250611521565b50505050565b6060610f9182611c21565b9050919050565b80518214610fdb576040517f08c379a0000000000000000000000000000000000000000000000000000000008152600401610fd290613477565b60405180910390fd5b60005b8281101561101d5761100a84838381518110610ffd57610ffc613497565b5b60200260200101516110ff565b8080611015906134f5565b915050610fde565b507f4b6dcabdeaeb0ec6121e2e093c11a74bd84844268dc1131fd8ba3b363a82d7e8838360405161104f92919061353e565b60405180910390a1505050565b82518414801561106c5750815184145b80156110785750805184145b61108157600080fd5b60005b848110156110f8576110e58482815181106110a2576110a1613497565b5b60200260200101518483815181106110bd576110bc613497565b5b60200260200101518484815181106110d8576110d7613497565b5b602002602001015161081f565b80806110f0906134f5565b915050611084565b5050505050565b611107611460565b73ffffffffffffffffffffffffffffffffffffffff16611125610a91565b73ffffffffffffffffffffffffffffffffffffffff161461117b576040517f08c379a000000000000000000000000000000000000000000000000000000000815260040161117290613166565b60405180910390fd5b60006111876008611b6b565b90506111936008611b79565b61119d8382611b8f565b6001600a600083815260200190815260200160002060006101000a81548160ff0219169083151502179055506111d38183611bad565b505050565b6000600560008473ffffffffffffffffffffffffffffffffffffffff1673ffffffffffffffffffffffffffffffffffffffff16815260200190815260200160002060008373ffffffffffffffffffffffffffffffffffffffff1673ffffffffffffffffffffffffffffffffffffffff16815260200190815260200160002060009054906101000a900460ff16905092915050565b600960009054906101000a900473ffffffffffffffffffffffffffffffffffffffff1681565b61129a611460565b73ffffffffffffffffffffffffffffffffffffffff166112b8610a91565b73ffffffffffffffffffffffffffffffffffffffff161461130e576040517f08c379a000000000000000000000000000000000000000000000000000000000815260040161130590613166565b60405180910390fd5b600073ffffffffffffffffffffffffffffffffffffffff168173ffffffffffffffffffffffffffffffffffffffff16141561137e576040517f08c379a0000000000000000000000000000000000000000000000000000000008152600401611375906135d9565b60405180910390fd5b61138781611938565b50565b60007f01ffc9a7000000000000000000000000000000000000000000000000000000007bffffffffffffffffffffffffffffffffffffffffffffffffffffffff1916827bffffffffffffffffffffffffffffffffffffffffffffffffffffffff1916149050919050565b60008073ffffffffffffffffffffffffffffffffffffffff166002600084815260200190815260200160002060009054906101000a900473ffffffffffffffffffffffffffffffffffffffff1673ffffffffffffffffffffffffffffffffffffffff1614159050919050565b600033905090565b816004600083815260200190815260200160002060006101000a81548173ffffffffffffffffffffffffffffffffffffffff021916908373ffffffffffffffffffffffffffffffffffffffff160217905550808273ffffffffffffffffffffffffffffffffffffffff166114db8361089f565b73ffffffffffffffffffffffffffffffffffffffff167f8c5be1e5ebec7d5bd14f71427d1e84f3dd0314c0f7b2291e5b200ac8c7c3b92560405160405180910390a45050565b61152c8484846116dc565b61153884848484611d73565b611577576040517f08c379a000000000000000000000000000000000000000000000000000000000815260040161156e9061366b565b60405180910390fd5b50505050565b6000611588826113f4565b6115c7576040517f08c379a00000000000000000000000000000000000000000000000000000000081526004016115be906133ae565b60405180910390fd5b60006115d28361089f565b90508073ffffffffffffffffffffffffffffffffffffffff168473ffffffffffffffffffffffffffffffffffffffff16148061164157508373ffffffffffffffffffffffffffffffffffffffff16611629846105df565b73ffffffffffffffffffffffffffffffffffffffff16145b80611652575061165181856111d8565b5b806116d35750600960009054906101000a900473ffffffffffffffffffffffffffffffffffffffff1673ffffffffffffffffffffffffffffffffffffffff168473ffffffffffffffffffffffffffffffffffffffff161480156116d25750600a600084815260200190815260200160002060009054906101000a900460ff165b5b91505092915050565b8273ffffffffffffffffffffffffffffffffffffffff166116fc8261089f565b73ffffffffffffffffffffffffffffffffffffffff1614611752576040517f08c379a0000000000000000000000000000000000000000000000000000000008152600401611749906136fd565b60405180910390fd5b600073ffffffffffffffffffffffffffffffffffffffff168273ffffffffffffffffffffffffffffffffffffffff1614156117c2576040517f08c379a00000000000000000000000000000000000000000000000000000000081526004016117b99061378f565b60405180910390fd5b6117cd838383611efb565b6117d8600082611468565b6001600360008573ffffffffffffffffffffffffffffffffffffffff1673ffffffffffffffffffffffffffffffffffffffff168152602001908152602001600020600082825461182891906137af565b925050819055506001600360008473ffffffffffffffffffffffffffffffffffffffff1673ffffffffffffffffffffffffffffffffffffffff168152602001908152602001600020600082825461187f91906137e3565b92505081905550816002600083815260200190815260200160002060006101000a81548173ffffffffffffffffffffffffffffffffffffffff021916908373ffffffffffffffffffffffffffffffffffffffff160217905550808273ffffffffffffffffffffffffffffffffffffffff168473ffffffffffffffffffffffffffffffffffffffff167fddf252ad1be2c89b69c2b068fc378daa952ba7f163c4a11628f55a4df523b3ef60405160405180910390a4505050565b6000600760009054906101000a900473ffffffffffffffffffffffffffffffffffffffff16905081600760006101000a81548173ffffffffffffffffffffffffffffffffffffffff021916908373ffffffffffffffffffffffffffffffffffffffff1602179055508173ffffffffffffffffffffffffffffffffffffffff168173ffffffffffffffffffffffffffffffffffffffff167f8be0079c531659141344cd1fd0a4f28419497f9722a3daafe3b4186f6b6457e060405160405180910390a35050565b8173ffffffffffffffffffffffffffffffffffffffff168373ffffffffffffffffffffffffffffffffffffffff161415611a6d576040517f08c379a0000000000000000000000000000000000000000000000000000000008152600401611a6490613885565b60405180910390fd5b80600560008573ffffffffffffffffffffffffffffffffffffffff1673ffffffffffffffffffffffffffffffffffffffff16815260200190815260200160002060008473ffffffffffffffffffffffffffffffffffffffff1673ffffffffffffffffffffffffffffffffffffffff16815260200190815260200160002060006101000a81548160ff0219169083151502179055508173ffffffffffffffffffffffffffffffffffffffff168373ffffffffffffffffffffffffffffffffffffffff167f17307eab39ab6107e8899845ad3d59bd9653f200f220920489ca2b5937696c3183604051611b5e91906124b2565b60405180910390a3505050565b600081600001549050919050565b6001816000016000828254019250508190555050565b611ba9828260405180602001604052806000815250611f00565b5050565b611bb6826113f4565b611bf5576040517f08c379a0000000000000000000000000000000000000000000000000000000008152600401611bec90613917565b60405180910390fd5b80600660008481526020019081526020016000209080519060200190611c1c92919061235b565b505050565b6060611c2c826113f4565b611c6b576040517f08c379a0000000000000000000000000000000000000000000000000000000008152600401611c62906139a9565b60405180910390fd5b6000600660008481526020019081526020016000208054611c8b90612f32565b80601f0160208091040260200160405190810160405280929190818152602001828054611cb790612f32565b8015611d045780601f10611cd957610100808354040283529160200191611d04565b820191906000526020600020905b815481529060010190602001808311611ce757829003601f168201915b505050505090506000611d15611f5b565b9050600081511415611d2b578192505050611d6e565b600082511115611d60578082604051602001611d48929190613a05565b60405160208183030381529060405292505050611d6e565b611d6984611f72565b925050505b919050565b6000611d948473ffffffffffffffffffffffffffffffffffffffff16612019565b15611eee578373ffffffffffffffffffffffffffffffffffffffff1663150b7a02611dbd611460565b8786866040518563ffffffff1660e01b8152600401611ddf9493929190613a7e565b6020604051808303816000875af1925050508015611e1b57506040513d601f19601f82011682018060405250810190611e189190613adf565b60015b611e9e573d8060008114611e4b576040519150601f19603f3d011682016040523d82523d6000602084013e611e50565b606091505b50600081511415611e96576040517f08c379a0000000000000000000000000000000000000000000000000000000008152600401611e8d9061366b565b60405180910390fd5b805181602001fd5b63150b7a0260e01b7bffffffffffffffffffffffffffffffffffffffffffffffffffffffff1916817bffffffffffffffffffffffffffffffffffffffffffffffffffffffff191614915050611ef3565b600190505b949350505050565b505050565b611f0a838361202c565b611f176000848484611d73565b611f56576040517f08c379a0000000000000000000000000000000000000000000000000000000008152600401611f4d9061366b565b60405180910390fd5b505050565b606060405180602001604052806000815250905090565b6060611f7d826113f4565b611fbc576040517f08c379a0000000000000000000000000000000000000000000000000000000008152600401611fb390613b7e565b60405180910390fd5b6000611fc6611f5b565b90506000815111611fe65760405180602001604052806000815250612011565b80611ff0846121fa565b604051602001612001929190613a05565b6040516020818303038152906040525b915050919050565b600080823b905060008111915050919050565b600073ffffffffffffffffffffffffffffffffffffffff168273ffffffffffffffffffffffffffffffffffffffff16141561209c576040517f08c379a000000000000000000000000000000000000000000000000000000000815260040161209390613bea565b60405180910390fd5b6120a5816113f4565b156120e5576040517f08c379a00000000000000000000000000000000000000000000000000000000081526004016120dc90613c56565b60405180910390fd5b6120f160008383611efb565b6001600360008473ffffffffffffffffffffffffffffffffffffffff1673ffffffffffffffffffffffffffffffffffffffff168152602001908152602001600020600082825461214191906137e3565b92505081905550816002600083815260200190815260200160002060006101000a81548173ffffffffffffffffffffffffffffffffffffffff021916908373ffffffffffffffffffffffffffffffffffffffff160217905550808273ffffffffffffffffffffffffffffffffffffffff16600073ffffffffffffffffffffffffffffffffffffffff167fddf252ad1be2c89b69c2b068fc378daa952ba7f163c4a11628f55a4df523b3ef60405160405180910390a45050565b60606000821415612242576040518060400160405280600181526020017f30000000000000000000000000000000000000000000000000000000000000008152509050612356565b600082905060005b6000821461227457808061225d906134f5565b915050600a8261226d9190613ca5565b915061224a565b60008167ffffffffffffffff8111156122905761228f612813565b5b6040519080825280601f01601f1916602001820160405280156122c25781602001600182028036833780820191505090505b5090505b6000851461234f576001826122db91906137af565b9150600a856122ea9190613cd6565b60306122f691906137e3565b60f81b81838151811061230c5761230b613497565b5b60200101907effffffffffffffffffffffffffffffffffffffffffffffffffffffffffffff1916908160001a905350600a856123489190613ca5565b94506122c6565b8093505050505b919050565b82805461236790612f32565b90600052602060002090601f01602090048101928261238957600085556123d0565b82601f106123a257805160ff19168380011785556123d0565b828001600101855582156123d0579182015b828111156123cf5782518255916020019190600101906123b4565b5b5090506123dd91906123e1565b5090565b5b808211156123fa5760008160009055506001016123e2565b5090565b6000604051905090565b600080fd5b600080fd5b60007fffffffff0000000000000000000000000000000000000000000000000000000082169050919050565b61244781612412565b811461245257600080fd5b50565b6000813590506124648161243e565b92915050565b6000602082840312156124805761247f612408565b5b600061248e84828501612455565b91505092915050565b60008115159050919050565b6124ac81612497565b82525050565b60006020820190506124c760008301846124a3565b92915050565b600081519050919050565b600082825260208201905092915050565b60005b838110156125075780820151818401526020810190506124ec565b83811115612516576000848401525b50505050565b6000601f19601f8301169050919050565b6000612538826124cd565b61254281856124d8565b93506125528185602086016124e9565b61255b8161251c565b840191505092915050565b60006020820190508181036000830152612580818461252d565b905092915050565b6000819050919050565b61259b81612588565b81146125a657600080fd5b50565b6000813590506125b881612592565b92915050565b6000602082840312156125d4576125d3612408565b5b60006125e2848285016125a9565b91505092915050565b600073ffffffffffffffffffffffffffffffffffffffff82169050919050565b6000612616826125eb565b9050919050565b6126268161260b565b82525050565b6000602082019050612641600083018461261d565b92915050565b6126508161260b565b811461265b57600080fd5b50565b60008135905061266d81612647565b92915050565b6000806040838503121561268a57612689612408565b5b60006126988582860161265e565b92505060206126a9858286016125a9565b9150509250929050565b6000806000606084860312156126cc576126cb612408565b5b60006126da8682870161265e565b93505060206126eb8682870161265e565b92505060406126fc868287016125a9565b9150509250925092565b60006020828403121561271c5761271b612408565b5b600061272a8482850161265e565b91505092915050565b61273c81612588565b82525050565b60006020820190506127576000830184612733565b92915050565b61276681612497565b811461277157600080fd5b50565b6000813590506127838161275d565b92915050565b600080604083850312156127a05761279f612408565b5b60006127ae8582860161265e565b92505060206127bf85828601612774565b9150509250929050565b600080604083850312156127e0576127df612408565b5b60006127ee858286016125a9565b92505060206127ff85828601612774565b9150509250929050565b600080fd5b600080fd5b7f4e487b7100000000000000000000000000000000000000000000000000000000600052604160045260246000fd5b61284b8261251c565b810181811067ffffffffffffffff8211171561286a57612869612813565b5b80604052505050565b600061287d6123fe565b90506128898282612842565b919050565b600067ffffffffffffffff8211156128a9576128a8612813565b5b6128b28261251c565b9050602081019050919050565b82818337600083830152505050565b60006128e16128dc8461288e565b612873565b9050828152602081018484840111156128fd576128fc61280e565b5b6129088482856128bf565b509392505050565b600082601f83011261292557612924612809565b5b81356129358482602086016128ce565b91505092915050565b6000806000806080858703121561295857612957612408565b5b60006129668782880161265e565b94505060206129778782880161265e565b9350506040612988878288016125a9565b925050606085013567ffffffffffffffff8111156129a9576129a861240d565b5b6129b587828801612910565b91505092959194509250565b600067ffffffffffffffff8211156129dc576129db612813565b5b6129e58261251c565b9050602081019050919050565b6000612a05612a00846129c1565b612873565b905082815260208101848484011115612a2157612a2061280e565b5b612a2c8482856128bf565b509392505050565b600082601f830112612a4957612a48612809565b5b8135612a598482602086016129f2565b91505092915050565b600080600060608486031215612a7b57612a7a612408565b5b6000612a898682870161265e565b9350506020612a9a8682870161265e565b925050604084013567ffffffffffffffff811115612abb57612aba61240d565b5b612ac786828701612a34565b9150509250925092565b600067ffffffffffffffff821115612aec57612aeb612813565b5b602082029050602081019050919050565b600080fd5b6000612b15612b1084612ad1565b612873565b90508083825260208201905060208402830185811115612b3857612b37612afd565b5b835b81811015612b7f57803567ffffffffffffffff811115612b5d57612b5c612809565b5b808601612b6a8982612a34565b85526020850194505050602081019050612b3a565b5050509392505050565b600082601f830112612b9e57612b9d612809565b5b8135612bae848260208601612b02565b91505092915050565b600080600060608486031215612bd057612bcf612408565b5b6000612bde8682870161265e565b9350506020612bef868287016125a9565b925050604084013567ffffffffffffffff811115612c1057612c0f61240d565b5b612c1c86828701612b89565b9150509250925092565b600067ffffffffffffffff821115612c4157612c40612813565b5b602082029050602081019050919050565b6000612c65612c6084612c26565b612873565b90508083825260208201905060208402830185811115612c8857612c87612afd565b5b835b81811015612cb15780612c9d888261265e565b845260208401935050602081019050612c8a565b5050509392505050565b600082601f830112612cd057612ccf612809565b5b8135612ce0848260208601612c52565b91505092915050565b600067ffffffffffffffff821115612d0457612d03612813565b5b602082029050602081019050919050565b6000612d28612d2384612ce9565b612873565b90508083825260208201905060208402830185811115612d4b57612d4a612afd565b5b835b81811015612d745780612d6088826125a9565b845260208401935050602081019050612d4d565b5050509392505050565b600082601f830112612d9357612d92612809565b5b8135612da3848260208601612d15565b91505092915050565b60008060008060808587031215612dc657612dc5612408565b5b6000612dd4878288016125a9565b945050602085013567ffffffffffffffff811115612df557612df461240d565b5b612e0187828801612cbb565b935050604085013567ffffffffffffffff811115612e2257612e2161240d565b5b612e2e87828801612cbb565b925050606085013567ffffffffffffffff811115612e4f57612e4e61240d565b5b612e5b87828801612d7e565b91505092959194509250565b60008060408385031215612e7e57612e7d612408565b5b6000612e8c8582860161265e565b925050602083013567ffffffffffffffff811115612ead57612eac61240d565b5b612eb985828601612a34565b9150509250929050565b60008060408385031215612eda57612ed9612408565b5b6000612ee88582860161265e565b9250506020612ef98582860161265e565b9150509250929050565b7f4e487b7100000000000000000000000000000000000000000000000000000000600052602260045260246000fd5b60006002820490506001821680612f4a57607f821691505b60208210811415612f5e57612f5d612f03565b5b50919050565b7f4552433732313a20617070726f76656420717565727920666f72206e6f6e657860008201527f697374656e7420746f6b656e0000000000000000000000000000000000000000602082015250565b6000612fc0602c836124d8565b9150612fcb82612f64565b604082019050919050565b60006020820190508181036000830152612fef81612fb3565b9050919050565b7f4552433732313a20617070726f76616c20746f2063757272656e74206f776e6560008201527f7200000000000000000000000000000000000000000000000000000000000000602082015250565b60006130526021836124d8565b915061305d82612ff6565b604082019050919050565b6000602082019050818103600083015261308181613045565b9050919050565b7f4552433732313a20617070726f76652063616c6c6572206973206e6f74206f7760008201527f6e6572206e6f7220617070726f76656420666f7220616c6c0000000000000000602082015250565b60006130e46038836124d8565b91506130ef82613088565b604082019050919050565b60006020820190508181036000830152613113816130d7565b9050919050565b7f4f776e61626c653a2063616c6c6572206973206e6f7420746865206f776e6572600082015250565b60006131506020836124d8565b915061315b8261311a565b602082019050919050565b6000602082019050818103600083015261317f81613143565b9050919050565b7f4552433732313a207472616e736665722063616c6c6572206973206e6f74206f60008201527f776e6572206e6f7220617070726f766564000000000000000000000000000000602082015250565b60006131e26031836124d8565b91506131ed82613186565b604082019050919050565b60006020820190508181036000830152613211816131d5565b9050919050565b7f4552433732313a206f776e657220717565727920666f72206e6f6e657869737460008201527f656e7420746f6b656e0000000000000000000000000000000000000000000000602082015250565b60006132746029836124d8565b915061327f82613218565b604082019050919050565b600060208201905081810360008301526132a381613267565b9050919050565b7f4552433732313a2062616c616e636520717565727920666f7220746865207a6560008201527f726f206164647265737300000000000000000000000000000000000000000000602082015250565b6000613306602a836124d8565b9150613311826132aa565b604082019050919050565b60006020820190508181036000830152613335816132f9565b9050919050565b7f4552433732313a206f70657261746f7220717565727920666f72206e6f6e657860008201527f697374656e7420746f6b656e0000000000000000000000000000000000000000602082015250565b6000613398602c836124d8565b91506133a38261333c565b604082019050919050565b600060208201905081810360008301526133c78161338b565b9050919050565b60006060820190506133e3600083018661261d565b6133f06020830185612733565b6133fd60408301846124a3565b949350505050565b7f546f74616c2055726920616e6420546f74616c4e667420646f6573206e6f742060008201527f6d61746368000000000000000000000000000000000000000000000000000000602082015250565b60006134616025836124d8565b915061346c82613405565b604082019050919050565b6000602082019050818103600083015261349081613454565b9050919050565b7f4e487b7100000000000000000000000000000000000000000000000000000000600052603260045260246000fd5b7f4e487b7100000000000000000000000000000000000000000000000000000000600052601160045260246000fd5b600061350082612588565b91507fffffffffffffffffffffffffffffffffffffffffffffffffffffffffffffffff821415613533576135326134c6565b5b600182019050919050565b6000604082019050613553600083018561261d565b6135606020830184612733565b9392505050565b7f4f776e61626c653a206e6577206f776e657220697320746865207a65726f206160008201527f6464726573730000000000000000000000000000000000000000000000000000602082015250565b60006135c36026836124d8565b91506135ce82613567565b604082019050919050565b600060208201905081810360008301526135f2816135b6565b9050919050565b7f4552433732313a207472616e7366657220746f206e6f6e20455243373231526560008201527f63656976657220696d706c656d656e7465720000000000000000000000000000602082015250565b60006136556032836124d8565b9150613660826135f9565b604082019050919050565b6000602082019050818103600083015261368481613648565b9050919050565b7f4552433732313a207472616e73666572206f6620746f6b656e2074686174206960008201527f73206e6f74206f776e0000000000000000000000000000000000000000000000602082015250565b60006136e76029836124d8565b91506136f28261368b565b604082019050919050565b60006020820190508181036000830152613716816136da565b9050919050565b7f4552433732313a207472616e7366657220746f20746865207a65726f2061646460008201527f7265737300000000000000000000000000000000000000000000000000000000602082015250565b60006137796024836124d8565b91506137848261371d565b604082019050919050565b600060208201905081810360008301526137a88161376c565b9050919050565b60006137ba82612588565b91506137c583612588565b9250828210156137d8576137d76134c6565b5b828203905092915050565b60006137ee82612588565b91506137f983612588565b9250827fffffffffffffffffffffffffffffffffffffffffffffffffffffffffffffffff0382111561382e5761382d6134c6565b5b828201905092915050565b7f4552433732313a20617070726f766520746f2063616c6c657200000000000000600082015250565b600061386f6019836124d8565b915061387a82613839565b602082019050919050565b6000602082019050818103600083015261389e81613862565b9050919050565b7f45524337323155524953746f726167653a2055524920736574206f66206e6f6e60008201527f6578697374656e7420746f6b656e000000000000000000000000000000000000602082015250565b6000613901602e836124d8565b915061390c826138a5565b604082019050919050565b60006020820190508181036000830152613930816138f4565b9050919050565b7f45524337323155524953746f726167653a2055524920717565727920666f722060008201527f6e6f6e6578697374656e7420746f6b656e000000000000000000000000000000602082015250565b60006139936031836124d8565b915061399e82613937565b604082019050919050565b600060208201905081810360008301526139c281613986565b9050919050565b600081905092915050565b60006139df826124cd565b6139e981856139c9565b93506139f98185602086016124e9565b80840191505092915050565b6000613a1182856139d4565b9150613a1d82846139d4565b91508190509392505050565b600081519050919050565b600082825260208201905092915050565b6000613a5082613a29565b613a5a8185613a34565b9350613a6a8185602086016124e9565b613a738161251c565b840191505092915050565b6000608082019050613a93600083018761261d565b613aa0602083018661261d565b613aad6040830185612733565b8181036060830152613abf8184613a45565b905095945050505050565b600081519050613ad98161243e565b92915050565b600060208284031215613af557613af4612408565b5b6000613b0384828501613aca565b91505092915050565b7f4552433732314d657461646174613a2055524920717565727920666f72206e6f60008201527f6e6578697374656e7420746f6b656e0000000000000000000000000000000000602082015250565b6000613b68602f836124d8565b9150613b7382613b0c565b604082019050919050565b60006020820190508181036000830152613b9781613b5b565b9050919050565b7f4552433732313a206d696e7420746f20746865207a65726f2061646472657373600082015250565b6000613bd46020836124d8565b9150613bdf82613b9e565b602082019050919050565b60006020820190508181036000830152613c0381613bc7565b9050919050565b7f4552433732313a20746f6b656e20616c7265616479206d696e74656400000000600082015250565b6000613c40601c836124d8565b9150613c4b82613c0a565b602082019050919050565b60006020820190508181036000830152613c6f81613c33565b9050919050565b7f4e487b7100000000000000000000000000000000000000000000000000000000600052601260045260246000fd5b6000613cb082612588565b9150613cbb83612588565b925082613ccb57613cca613c76565b5b828204905092915050565b6000613ce182612588565b9150613cec83612588565b925082613cfc57613cfb613c76565b5b82820690509291505056fea264697066735822122079e9c56732f4a30d0190661838749b7fd5686e90580463c6770835ddc9ba0acf64736f6c634300080a0033",
  "linkReferences": {},
  "deployedLinkReferences": {}
}